:060000000A128A110C280F
:10000800FE00030EF0000A08F1000A128A111D2AE8
:100018000A128A110F28F901FA0183120313AC019D
:10002800AD0183010A128A1119280A128A11A62120
:100038000A128A110130F2000030F3000A128A1104
:100048004C220A128A110130F2000030F3000A1221
:100058008A1166220A128A11831203139F183528FF
:10006800362830280A128A1179220A128A1173084E
:1000780083120313AB007208AA002B08A5002A08F4
:10008800A4002508A9002408A8000A30F2000030BE
:10009800F3002B08F5002A08F4000A128A118620BA
:1000A8000A128A11730883120313A7007208A600A4
:1000B8002908F3002808F2000A128A11EC210A1212
:1000C8008A110330F8009730F700F70B6928F80B0E
:1000D80069286E28831203132708F3002608F20004
:1000E8000A128A11EF200A128A110330F800973099
:1000F800F700F70B7D28F80B7D2882281E280A12A6
:100108008A110C2883120313A101F31F8C288D2850
:100118009428F209F309F20A0319F30AA101A10AC2
:10012800F51F97289828A128F409F509F40A031956
:10013800F50A0130F6007608A106A201A3017208AB
:1001480073040319A828A928E028A001A00AB72841
:1001580001300310F20DF30DFF3E031DAD280130F1
:10016800F6007608A007F31FBA28BB28AC28013090
:100178000310A20DA30DFF3E031DBC2873087502D2
:10018800031DC82872087402031CCB28CC28D32866
:100198007208F4027308031CF503F50222140130F7
:1001A8000310F30CF20CFF3E031DD4280130A0020B
:1001B800031DDF28E028BB2821080319E428E528C7
:1001C800EA28A209A309A20A0319A30A2308F3002B
:1001D8002208F200080022293F30F4000030F50020
:1001E80047290630F4000030F50047295B30F40059
:1001F8000030F50047294F30F4000030F50047295A
:100208006630F4000030F50047296D30F400003006
:10021800F50047297D30F4000030F5004729073004
:10022800F4000030F50047297F30F4000030F50075
:1002380047296730F4000030F50047297308003A71
:100248000319272947297208003A0319F028013AA7
:100258000319F528033A0319FA28013A0319FF2864
:10026800073A03190429013A03190929033A03191A
:100278000E29013A031913290F3A03191829013ACB
:1002880003191D2947298312031389147408880048
:100298008910080072037304031D5329542958292F
:1002A8000130831603138600023072067304031D9F
:1002B8005E295F2963290330831603138600033000
:1002C80072067304031D69296A296E29073083168B
:1002D80003138600043072067304031D74297529FC
:1002E80079290F30831603138600053072067304CC
:1002F800031D7F29802984291F3083160313860054
:10030800063072067304031D8A298B298F293F3012
:10031800831603138600073072067304031D95299C
:1003280096299A297F3083160313860008307206AF
:100338007304031DA029A129A529FF3083160313DF
:1003480086000800831603178801831603138701A4
:100358008312031387018316031388018901831607
:10036800031789010830F2000030F3000A128A11DD
:100378004E210A128A11FF308316031396000B10C0
:100388008B158B1770308F040F1481128111073071
:100398008104C8308312031381000B118B168B174D
:1003A800023083160317880007308316031385006D
:1003B800831203131F083F3980389F0083160313E5
:1003C8009F171F129F12831203131F140C13080088
:1003D800F7291C2A1C2A1C2A1C2A1C2A1C2A1C2A0B
:1003E8001C2A1C2A1C2A7308003A0319FC291C2AF7
:1003F8007208003A0319ED29013A0319EE29033A64
:100408000319EF29013A0319F029073A0319F129C9
:10041800013A0319F229033A0319F329013A031996
:10042800F4290F3A0319F529013A0319F6291C2A68
:1004380008000B1D202A212A262AC83083120313FC
:1004480081000B110B1C292A2A2A452A831203131F
:10045800061C2F2A302A382A0130F9070318FA0A0D
:100468000030FA0779088700861C3B2A3C2A442A70
:10047800FF30F9070318FA0AFF30FA0779088700EE
:100488000B1071088A00700E8300FE0E7E0E0900A4
:1004980072037304031D512A522A582A8312031324
:1004A8001F08C33904389F00023072067304031D05
:1004B8005E2A5F2A652A831203131F08C339083886
:1004C8009F00080072037304031D6B2A6C2A6F2AAD
:1004D800831203139F1472087304031D742A752A68
:1004E800782A831203139F100800831203131E082F
:0C04F800F300831603131E08F200080036
:08400000FF3FFF3FFF3FFF3FC0
:04400E00D420FF3F7C
:00000001FF
